:0200000480007A
:1000000073100030B714013823A40400B701004076
:1000100093810178B702008093820220739052305E
:1000200073104030731040347325103013758502FF
:100030006308050037250000732005307310300079
:10004000732540F1631405043701044013010100D6
:100050001302010073100134B70200809382220C56
:10006000E7800200B70200809382420AE780020024
:100070001305000093050000B7120080938242CE62
:10008000B70000809380C0096780020073F00730DA
:1000900073104030730050106FF0DFFF130000004A
:1000A0006FF0DFFE6780000000000000000000002D
:1000B000411106C622C400080100B2402244410199
:1000C0008280011106CE22CC0010B71700401387A2
:1000D000C7D6B707004093878723B307F7403E860C
:1000E0008145B707004013858723EF302065B707A8
:1000F000004013878723B70700409387C700B307E3
:10010000F7403E86B77700809385470AB7070040DF
:100110001385C700EF30006DB70700401387A700B5
:10012000B707004093870700B307F7403E86B777CD
:10013000008093858709B707004013850700EF30DB
:10014000606AB707004013870700B707004093872E
:100150000700B307F7403E86B74700809385078DB9
:10016000B707004013850700EF30C067B7070040AE
:1001700013870700B707004093870700B307F740CE
:100180003E86B74700809385078DB70700401385EB
:100190000700EF302065232604FE0DA08327C4FE50
:1001A00013972700B707004093870700BA979C432F
:1001B00082978327C4FE85072326F4FEB7070040F5
:1001C00013870700B707004093870700B307F7407E
:1001D00089830327C4FEE363F7FC01000100F240BA
:1001E0006244056182800000000000000000000001
:10020000232E51FE93020100130101F8137101FF27
:10021000232211002324510083A2C2FF2326310090
:1002200023284100232A5100232C6100232E710032
:1002300023208102232291022324A1022326B1023A
:100240002328C102232AD102232CE102232EF1020A
:10025000232001052322110523242105232631050E
:1002600023284105232A5105232C6105232E7105DE
:1002700023208107232291072324A1072326B107E6
:100280002328C107232AD107232CE107232EF107B6
:100290007322003473231034232061007324003050
:1002A00073252034F325103413060100B7010040F4
:1002B00093810178B70200809382C259E7800200DF
:1002C0007310043003230100731013348321C10021
:1002D0000322010183224101032381018323C10100
:1002E0000324010283244102032581028325C102E4
:1002F0000326010383264103032781038327C103C8
:100300000328010483284104032981048329C104AB
:10031000032A0105832A4105032B8105832BC1058F
:10032000032C0106832C4106032D8106832DC10673
:10033000032E0107832E4107032F8107832FC10757
:10034000832041000321810073002030130000004E
:100350001300000013000000130000001300000051
:100360001300000013000000130000001300000041
:100370001300000013000000130000001300000031
:040380001300000066
:10038400011106CE22CC0010AA872324B4FE232216
:10039400C4FEA307F4FE8347F4FE89EFB7070040C9
:1003A4001387C700832784FE8A07BA97032744FE6E
:1003B40098C321A8B70700401387C708832784FE82
:1003C4008A07BA97032744FE98C30100F2406244A7
:1003D40005618280011106CE22CC00102326A4FEE2
:1003E400AE87A305F4FEB706000C0347B4FE8327CB
:1003F400C4FE8A07B69798C30100F24062440561BF
:100404008280797106D622D40018AA87232CB4FCE2
:10041400A30FF4FC8347F4FD9DEB3707000C8967B9
:10042400BA979C432326F4FE832784FD0547B3171C
:10043400F7003E878327C4FED98F2326F4FE3707AF
:10044400000C8967BA970327C4FE98C325A8370709
:10045400000C8967BA9783A707082326F4FE83272D
:1004640084FD0547B317F7003E878327C4FED98F61
:100474002326F4FE3707000C8967BA970327C4FEC6
:1004840023A0E7080100B250225445618280011183
:1004940006CE22CC0010AA87A307F4FE8347F4FEFD
:1004A40081EB3707000CB7072000BA97DC4339A06B
:1004B4003707000CB7172000BA97DC433E85F2409B
:1004C400624405618280011106CE22CC0010AA8705
:1004D4002324B4FEA307F4FE8347F4FE91EB37070D
:1004E400000CB7072000BA97032784FED8C309A8D5
:1004F4003707000CB7172000BA97032784FED8C328
:100504000100F240624405618280011106CE22CCD2
:100514000010AA872324B4FEA307F4FE8347F4FE45
:1005240091EB3707000CB7072000BA97032784FE26
:1005340098C309A83707000CB7172000BA970327F8
:1005440084FE98C30100F240624405618280011177
:1005540006CE22CC001001451D3F2326A4FEB7077A
:1005640000401387C7008327C4FE8A07BA979C43B9
:1005740099CFB70700401387C7008327C4FE8A07B3
:10058400BA979C4382978325C4FE01452D3F010001
:10059400F240624405618280011106CE22CC001033
:1005A400F32720342326F4FE8327C4FE2324F4FEF9
:1005B400832784FE63C30702832784FEBD8B2D47F4
:1005C400636BF70013972700B74700809387C79D95
:1005D400BA979C438287010001A0953F0100F24035
:1005E400624405618280757106C722C54AC34EC143
:1005F400D2DED6DCDADADED8E2D6E6D4EAD2EED03F
:100604000009B707004023AC0722B707004023AE18
:100614000722B707004023A00724B707004023A2FE
:100624000724B7E70030BC4B9D8393F7F70393F798
:10063400F70FA307F4FCB7E70030BC4BB5839D8BE1
:1006440093F7F70F85072307F4FCB7E70030BC4B9B
:10065400C18393F7F70393F7F70F8507A306F4FC19
:10066400B7E70030BC4BD9839D8B93F7F70F850711
:100674002306F4FCB7E70030BC4BE58393F7F7039C
:1006840093F7F70F8507A305F4FCB7E70030BC4BDD
:10069400858B93F7F70F638A0720B7E70030BC4BCD
:1006A4009183858B93F7F70F63860718B7E70030BC
:1006B400BC4F3E878567FD17F98FC207C183E207E8
:1006C400232CF4FAFD87232EF4FAB7E70030F84B15
:1006D400B7070001FD17F98F232AF4FA0347F4FC46
:1006E400B727F40093870740B3C7E7023E8EFD8720
:1006F400BE8E832744FB3E8F814F032784FB8327D1
:10070400C4FB3305EF00AA86B3B6E601B385FF0048
:10071400B387B600BE852A87AE873386EE02B386DA
:10072400C7033696B306EE02B338EE023688B30733
:100734001601BE88939788001353880133E367003A
:1007440093D388010347E4FC8347D4FCB307F7023F
:10075400232CF4F8FD87232EF4F8032684F983264A
:10076400C4F91A859E85EF20D0422A87AE87B70741
:10077400004023AEE7228347F4FC3727F400130735
:100784000740B347F7022328F4F8FD87232AF4F837
:10079400832744FB2324F4F8232604F8032684FB4C
:1007A4008326C4FB032884F88328C4F8C2853387CE
:1007B400C500BA854285B3B5A5004685B307D50003
:1007C400B386F500B687032504F9832544F9AE867C
:1007D4003386E602AA86B386D702B2962A86330601
:1007E400E602AA85B3BAE502328AB3875601BE8A05
:1007F40093978A00135C8A0133EC870193DC8A01A6
:100804000347C4FC8347B4FCB307F7022320F4F87E
:10081400FD872322F4F8032604F8832644F862852E
:10082400E685EF2010372A87AE87B707004023A05C
:10083400E724A5A8B7E70030BC4F3E878567FD17BE
:10084400F98FC207C1832322F4FC032744FCB72792
:10085400F40093870740B307F7028346F4FC034789
:10086400E4FCB386E6020347D4FC3387E60233D7BD
:10087400E702B707004023AEE722032744FCB7276B
:10088400F40093870740B307F7028346F4FC034759
:10089400C4FCB386E6020347B4FC3387E60233D7CD
:1008A400E702B707004023A0E724B7E70030DC5F86
:1008B4008D8B93F7F70F0D47638DE7020D47634860
:1008C400F7000547638EE7000947638AE702B70725
:1008D400004037470F001307072423ACE7220DA875
:1008E400B70700403727F4001307074023ACE7227B
:1008F40005A0B7070040216723ACE72211A8B7077A
:10090400004003A7C723B707004023ACE722010038
:10091400B7E700309C4B8583858B93F7F70F638390
:10092400071C370701208567BA9783A7C780E1832F
:10093400858B93F7F70F639F0718370701208567A7
:10094400BA9783A707809D8393F7F70393F7F70F6D
:10095400A307F4FC370701208567BA9783A70780AC
:10096400B5839D8B93F7F70F85072307F4FC3707AF
:1009740001208567BA9783A70780C18393F7F7039C
:1009840093F7F70F8507A306F4FC37070120856763
:10099400BA9783A707809183858B93F7F70FE5C7F1
:1009A400370701208567BA9783A787803E878567C5
:1009B400FD17F98FC207C183E2072324F4FAFD87E8
:1009C4002326F4FA370701208567BA9703A74780DF
:1009D400B7070001FD17F98F2322F4FA8347F4FCCB
:1009E4003727F40013070740B347F7023E8DFD870E
:1009F400BE8D832744FA232CF4F6232E04F6032613
:100A040084FA8326C4FA032884F78328C4F7C285AA
:100A14003387C500BA854285B3B5A5004685B307BB
:100A2400D500B386F500B6873386ED02B386A703F7
:100A3400B2963306ED02B339ED023289B38736013B
:100A4400BE8993978900135B890133EB670193DBBC
:100A540089010347E4FC8347D4FCB307F702232846
:100A6400F4F6FD87232AF4F6032604F7832644F7D5
:100A74005A85DE85EF20F0112A87AE87B70700403C
:100A840023A2E72485A0370701208567BA9783A7A7
:100A940087803E878567FD17F98FC207C1832328A6
:100AA400F4FA032704FBB727F40093870740B3073E
:100AB400F7028346F4FC0347E4FCB386E6020347EB
:100AC400D4FC3387E60233D7E702B707004023A2FA
:100AD400E72409A8B707004003A78723B707004006
:100AE40023A2E7240100BA402A441A498A49765AC3
:100AF400E65A565BC65B365CA65C165D865D49614C
:100B04008280011106CE22CC0010232604FEB7E712
:100B1400003003D70700136707402390E700B7E7C7
:100B2400003003D70701136707402398E700B7276E
:100B34000028D45F3167558FD8DFB727002803D743
:100B4400470313670708239AE702B7E700304567AE
:100B54001307171223AEE70AB7E70030054798DBFF
:100B6400232604FE31A08327C4FE85072326F4FE32
:100B7400B7E70030DC5F8D8B13F7F70FB7E7003072
:100B84009C5B8D8B93F7F70F6308F7000327C4FE74
:100B940093073006E3F9E7FCB7E7003037E7C31EF5
:100BA40013077708B8CBB7E7003023AA0704B7E7E1
:100BB400003013074006B8CFB7E70030B84B1377BF
:100BC400F7F913670702B8CB9307803E2326F4FE98
:100BD40031A08327C4FEFD172326F4FE8327C4FE19
:100BE400EDFB0100B7E70030BC53858B13F7F70F1B
:100BF4008547E319F7FEB7E70030B84B659B1367E9
:100C04004700B8CB89472324F4FEB7D70030F44714
:100C14003707F1FF7D17F98E37070300558FF8C7A3
:100C2400B7D70030F84713672700F8C7B7E7003095
:100C3400032784FE98DB232604FE31A08327C4FE09
:100C440085072326F4FEB7E70030DC5F8D8B13F7AE
:100C5400F70FB7E700309C5B8D8B93F7F70F6308B2
:100C6400F7000327C4FE93073006E3F9E7FC01000D
:100C7400F240624405618280011106CE22CC00104C
:100C8400814501455930930700082326F4FE832744
:100C9400C4FEF3B747302326F4FE856793870780A5
:100CA4002324F4FE832784FEF3A747302324F4FE91
:100CB400A1472322F4FE832744FEF3A7073023220F
:100CC400F4FE0100F240624405618280411106C6CF
:100CD40022C400083D350100B24022444101828013
:100CE400411106C622C40008D537F5384925B7078F
:100CF400004013858723A5245926EF00303FEF00D9
:100D0400505EEF00D0748D3FEF10B044EF1050628E
:100D1400B7570080138507E7EF10306D9946B70782
:100D240000401386470093051002B707004013855F
:100D3400C710EF20A0461305C05DD52AEF10505F01
:100D4400B70700401386C71081450145EF10907E18
:100D540069A8B707004083C7F72493F7F70F3E87C6
:100D6400B7170040938607D0BA878E07998F8A07F2
:100D7400998FB69783C71700BE86B70700401387BD
:100D8400071393972600BA979443B707004083C785
:100D9400F72493F7F70F3E87BA878E07998F8A0750
:100DA400998F37170040130707D0BA971387270086
:100DB40013061002B70700409385C7103A85829640
:100DC400B707004083C7F72493F7F70F138717007B
:100DD4009357F741F9833E970D8BB307F74013F709
:100DE400F70FB7070040A387E724B707004083C77E
:100DF400E72413F7F70FB707004083C7F72493F7E7
:100E0400F70FE318F7F4B707004083C7A72613F7D3
:100E1400F70FB707004083C7370093F7F70F05466E
:100E2400BE853A85EF20E0191305800C0922B70727
:100E3400004083C7A72613F7F70FB707004083C7FF
:100E4400370093F7F70F0146BE853A85EF20601708
:100E54001305800CE92829A80145EF20402013053B
:100E6400800CF1200545EF20801F1305800CC12064
:100E7400B707004083C7872693F7F70FF1FFB7073B
:100E8400004083C7972693F7F70FA5D3B7D7003051
:100E940037F70F8098C3B7D700303707DEC0110784
:100EA400F8C30100B7D70030BC47858BE5FFB7D73F
:100EB400003037F70F8098C3B707004083C7170087
:100EC40093F7F70F3E87B707004093874700BA9719
:100ED4008387070093F7F70F3E87B707004083C760
:100EE400270093F7F70FBE86B707004093874700A4
:100EF400B6978387070093F7F70FA2075D8FB7D7DD
:100F04000030D8C3B7D700303707DEC00907F8C3AD
:100F14000100B7D70030BC47858BE5FFB707004019
:100F2400A3840726B7270028054798CB7DBD011168
:100F340006CE22CC00102326A4FEB70700400327C8
:100F4400C4FE23AAE7240100B707004083A747256E
:100F5400E5FF01000100F240624405618280011155
:100F640006CE22CC00102326A4FEB7E70030984713
:100F7400B7E700301367170098C7B7E70030984FFA
:100F8400B7E700301367170098CF8327C4FE984350
:100F9400B7576210938737DDB337F70213D767006B
:100FA400B70700307D17D8CFB7070030DC4383275D
:100FB400C4FE9843B7576210938737DDB337F702FF
:100FC40013D76700B70700307D17D8C3B7070030C1
:100FD4009843B70700301367070198C3B707003079
:100FE4009843B70700301377F7EF98C337070030FB
:100FF400B7070030184398C3B70700309847B707BE
:1010040000301367270098C7B7170080138667035B
:1010140099450145EFF0CFB685451945EFF08FBBF3
:1010240099450145EFF0EFBD0100F24062440561CE
:101034008280411106C622C40008B707004083A776
:10104400072513871700B707004023A8E724B7072D
:10105400004083A7472599CBB707004083A74725BE
:101064001387F7FFB707004023AAE724B707003028
:101074000D47D8CB0100B240224441018280411186
:1010840006C622C40008B7E700309847B7E7003027
:101094001367470098C7B7E70030984FB7E70030A9
:1010A4001367470098CFB72700309C4393F7F7FCAA
:1010B40093E60701B72700309843B7270030558FD0
:1010C40098C3B72700309843B72700301377F7EF5A
:1010D40098C337270030B7270030184398C3B72781
:1010E40000309847B72700301367270098C7B71711
:1010F40000801386C711A1450145EFF06FA885450F
:101104002145EFF02FADA1450145EFF08FAF010070
:10111400B240224441018280011106CE22CC00104B
:10112400B7270030239E0700B7870030B847B7873A
:101134000030799BB8C7B7C70030985B8967F98FCF
:10114400F9C7B71700409387078083A7872D958336
:1011540093F7F73FC207C18385072322F4FE29478B
:10116400832744FEB307F7402320F4FE832704FEBD
:10117400A9C7B707004083C7C72493F7F70F3E8773
:10118400B7170040938707C03E97032604FE938554
:10119400C1C83A85EF20C064832704FE13F7F70F14
:1011A400B707004083C7C72493F7F70FBA9713F71D
:1011B400F70FB70700402386E724B717004093874B
:1011C400078003A7872DB70700605D8FB71700401E
:1011D4009387078023ACE72CB717004093870780D9
:1011E40083A7872D13E70712B7170040938707805B
:1011F40023ACE72CB71700409387078003A7872DFC
:10120400B71700409387078023ACE72C31AAB717A0
:1012140000409387078083A7870D958393F7F73F53
:10122400C207C18385072326F4FE29478327C4FE0A
:10123400B307F7402324F4FE832784FEA9C7B70726
:10124400004083C7C72493F7F70F3E87B7170040C2
:10125400938707C03E97032684FE938501C83A8589
:10126400EF200058832784FE13F7F70FB7070040D9
:1012740083C7C72493F7F70FBA9713F7F70FB70786
:1012840000402386E724B71700409387078003A70D
:10129400870DB70700605D8FB717004093870780FD
:1012A40023ACE70CB71700409387078083A7870D0B
:1012B40013E70712B71700409387078023ACE70CA6
:1012C400B71700409387078003A7870DB71700401F
:1012D4009387078023ACE70C81A8B707004083C736
:1012E400D72493F7F70F3E87B7170040938707C0BB
:1012F400BA9783C707003E85EF00307EB7070040EA
:1013040083C7D72493F7F70F138717009357F74131
:10131400E1833E971377F70FB307F74013F7F70FFF
:10132400B7070040A386E724B707004083C7D72444
:1013340013F7F70FB707004083C7C72493F7F70FD6
:10134400E31DF7F8B7870030985FB787003013675D
:10135400070198DFB7270030D84BB7270030136751
:101364003700D8CB0100F24062440561828041110C
:1013740006C622C40008B7270028D857B727002874
:1013840013671700D8D7B72700280547D8C7B7274A
:101394000028094798DFB7270028094798DBB727B3
:1013A4000028D853B72700284D9BD8D3B727002847
:1013B4009853B72700281367270098D3B727002826
:1013C400114798DFB7270028114798DBB727002873
:1013D400D853B72700281377F7FCD8D3B7270028AA
:1013E4009853B72700281367470098D3B7270028D6
:1013F400214798DFB7270028214798DBB727002823
:10140400D853B72700281377F7F3D8D3B727002882
:101414009853B72700281367870098D3B727002865
:10142400414798DFB7270028414798DBB7270028B2
:10143400D853B72700281377F7CFD8D3B727002876
:101444009853B72700281367070198D3B7270028B4
:10145400B857B72700281367E701B8D7B72700287C
:10146400F85BB72700281367E701F8DBB7270028E4
:10147400B853B727002813676700B8D3B71700809D
:101484001386A74A95450145EFE09FEF854515452D
:10149400EFE05FF495450145EFE0BFF60100B2408F
:1014A400224441018280011106CE22CC26CA4AC8B8
:1014B4000010B727002883A70708898BC1C3B70783
:1014C400004003A70725B707004083A787251D8F82
:1014D4009307600963FFE704B707004005472384C7
:1014E400E726B7270028F853B727002813672700F3
:1014F400F8D3B7270028F853B72700281367470005
:10150400F8D3B7270028B853B727002813678700F4
:10151400B8D3B7270028B853B727002813670701A3
:10152400B8D3B707004003A70725B707004023AC8B
:10153400E724B7270028094723A0E708B72700288E
:1015440083A70708918BCDCFB707004003A70725D2
:10155400B707004083A7C7251D8F9307600963FC65
:10156400E708B707004083C7A72613F7F70FB707A5
:10157400004083C7370093F7F70F0146BE853A85CD
:10158400EF103024B707004083C7070093F7F70F25
:101594003E8785476318F702B7070040238507266F
:1015A400B707004083C7370013F7F70F930700020C
:1015B40063F4E700F54719A09307D0033707004009
:1015C400A301F700B707004083C7A72613F7F70F57
:1015D400B707004083C7370093F7F70F0546BE856A
:1015E4003A85EF10101EB707004003A70725B70779
:1015F400004023AEE724B7270028114723A0E708BB
:10160400B727002883A70708A18B63810724B7079E
:10161400004003A70725B707004083A707261D8FAF
:101624009307600963FFE720B707004083C70700FB
:1016340093F7F70F3E878547631DF71EB7070040F2
:1016440083C7370013F7F70FFD4763EBE70EB707C0
:10165400004083C7170093F7F70F13871700B76786
:10166400666693877766B317F70293D61740935746
:10167400F7419D8EB6878A07B697B306F74013F7EE
:10168400F60FB7070040A380E700B707004083C701
:10169400170093F7F70FBE84B707004083C7A72648
:1016A40013F7F70FB707004083C7370093F7F70F17
:1016B400BE853A85EF10902AAA87BE86B7070040F8
:1016C40093874700A69703870700B70700409387CF
:1016D400C710B6972380E700B707004083C7A72643
:1016E40093F4F70FB707004083C7370093F7F70F5A
:1016F4008D1713F9F70FB707004083C7A72613F711
:10170400F70FB707004083C7370093F7F70FBE857D
:101714003A85EF10B024AA873E87B7070040938725
:10172400C710BA97838707002306F4FEA30604FEB6
:101734009307C4FE3E86CA852685EF10A05FCDA818
:10174400B707004083C7270093F7F70F13871700E5
:10175400B767666693877766B317F70293D6174021
:101764009357F7419D8EB6878A07B697B306F7401D
:1017740013F7F60FB70700402381E700B7070040CF
:1017840083C7270093F7F70FBE84B707004083C7CA
:10179400A72613F7F70FB707004083C7370093F75F
:1017A400F70FBE853A85EF10701BAA87BE86B70770
:1017B400004093874700A69703870700B7070040B8
:1017C4009387C710B6972380E700B707004083C705
:1017D400A72693F4F70FB707004083C7370093F7A2
:1017E400F70F8D1713F9F70FB707004083C7A72624
:1017F40013F7F70FB707004083C7370093F7F70FC6
:10180400BE853A85EF109015AA873E87B70700403A
:101814009387C710BA97838707002304F4FEA304B1
:1018240004FE930784FE3E86CA852685EF10805009
:101834000100B707004003A70725B707004023A00E
:10184400E726B7270028214723A0E708B727002861
:1018540083A70708C18BC1C7B707004003A70725A3
:10186400B707004083A747261D8F9307600963F3DA
:10187400E706B707004023840726B707004005475B
:10188400A384E726B7270028B853B727002813678F
:101894002700B8D3B7270028B853B7270028136701
:1018A4004700B8D3B7270028F853B7270028136791
:1018B4008700F8D3B7270028F853B7270028136701
:1018C4000701F8D3B707004003A70725B70700406F
:1018D40023A2E726B7270028414723A0E7080100F1
:1018E400F2406244D244424905618280011106CE2D
:1018F40022CC0010A1472326F4FE8327C4FED3F78D
:1019040017D0B747008007A7078D5377F708B74765
:10191400008087A7478D5377F710B747008087A7C4
:10192400878DD377F700D39717C02324F4FEB7E746
:1019340000309843B7E700301367071098C3B7E740
:101944000030984BB7E700301367071098CBB7E720
:1019540000309847B7E700301367071098C7B7E718
:101964000030984FB7E700301367071098CFB707D8
:101974000028D45FB707002837070003558FD8DF46
:10198400B7070028D45FB70700283707000C558F26
:10199400D8DFB7070028D45BB70700280D67558F39
:1019A400D8DBB7E70030B45F3707FDFF7D17F98E4A
:1019B4004167558FB8DFB7E70030B45F3707F0FFF2
:1019C4007D17758FB8DFB7E70030B85F136707106E
:1019D400B8DFB7E70030B85F13671700B8DFB78721
:1019E40000300327C4FED8D3B7870030032784FE12
:1019F40098D7B7870030D857B787003013670706E2
:101A0400D8D7B7870030D857B78700303D9BD8D791
:101A1400B7870030D85BB7870030137707FCD8DB73
:101A2400B7870030985FB78700301367070198DFE6
:101A3400B7870030985BB78700301367073098DBAF
:101A4400B7870030985BB78700301367170098DBBF
:101A5400B72700801386E7A7E1450145EFE05F92D1
:101A640085456145EFE01F97E1450145EFE07F992A
:101A74000100F240624405618280411106C622C41D
:101A84000008B7870030DC5FC18BB9C7B787003067
:101A9400985FB78700303D9B98DFB7870030B84721
:101AA400B787003013671700B8C7B7270030DC4387
:101AB400B72700304167130787DED8C3B727003044
:101AC400130780DE239EE700B7870030F843B7870B
:101AD400003013670701F8C30100B24022444101FA
:101AE4008280411106C622C40008B7E7003098433B
:101AF400B7E700301367072098C3B7E70030984B67
:101B0400B7E700301367072098CBB7E70030984356
:101B1400B7E700301367070298C3B7E70030984B64
:101B2400B7E700301367070298CBB7170028DC5FCC
:101B340013F707F0B717002813675705D8DFB7174F
:101B44000028D85BB71700281367F700D8DBB7174E
:101B540000281307000798DFB7170028D857B717CE
:101B6400002813670707D8D7B717002813070007FB
:101B740098C7B7E7003083A647093707FDFF7D17ED
:101B8400F98E4167558F23AAE708B7E7003083A68B
:101B94004709370700C17D17F98E37070001558FB4
:101BA40023AAE708B7E7003083A6470937071000E0
:101BB400558F23AAE708B7E7003003A7470913673F
:101BC400071023AAE708B7E7003003A747091367FC
:101BD400170023AAE708B7070520094798CBB707DA
:101BE40005209443B707052041771307F70F758F36
:101BF40098C3B70705209843B70705201377F7F76D
:101C040098C3B70705209843B70705201377F7FC57
:101C140098C3B70705209C4313F707FFB7070520B0
:101C24001367770098C3B7070520D843B707052083
:101C34006D9BD8C3B7070520D843B70705201367A2
:101C44002700D8C30100B2402244410182804111DF
:101C540006C622C40008B7C70030D843B7C700304F
:101C640013678700D8C3B71700409387078003A77B
:101C7400070DB78700305D8FB71700409387078043
:101C840023A8E70CB71700409387078003A7870DA5
:101C9400B71700409387078023ACE70CB7170040C1
:101CA4009387078003A7870DE1675D8FB71700400F
:101CB4009387078023ACE70CB7170040938707800E
:101CC40003A7470D938791C85D8FB717004093878B
:101CD400078023AAE70CB71700409387078003A760
:101CE400870DB71700409387078023ACE70CB7171D
:101CF40000409387078003A7870DB7170040938799
:101D0400078023ACE70CB71700409387078003A72D
:101D1400870DB70700605D8FB71700409387078072
:101D240023ACE70CB71700409387078083A7870D80
:101D340013E70712B71700409387078023ACE70C1B
:101D4400B71700409387078003A7870DB717004094
:101D54009387078023ACE70CB7170040938707806D
:101D640003A7870AB71700409387078023A4E70ACD
:101D7400B71700409387078003A7870AB717004067
:101D84009387078023A4E70AB71700409387078047
:101D940003A7470AB78700305D8FB71700409387C2
:101DA400078023A2E70AB71700409387078003A799
:101DB400870AB71700409387078023A4E70AB71759
:101DC40000409387078003A7870AB70718005D8F31
:101DD400B71700409387078023A4E70AB71700408A
:101DE4009387078003A7072DB78700305D8FB71748
:101DF40000409387078023A8E72CB71700409387F8
:101E0400078003A7872DB71700409387078023AC6B
:101E1400E72CB71700409387078003A7872DE16756
:101E24005D8FB71700409387078023ACE72CB71763
:101E340000409387078003A7472D938751C95D8F7F
:101E4400B71700409387078023AAE72CB7170040F1
:101E54009387078003A7872DB717004093870780D0
:101E640023ACE72CB71700409387078003A7872D7F
:101E7400B71700409387078023ACE72CB7170040BF
:101E84009387078003A7872DB70700605D8FB71777
:101E940000409387078023ACE72CB7170040938753
:101EA400078083A7872D13E70712B717004093878E
:101EB400078023ACE72CB71700409387078003A75C
:101EC400872DB71700409387078023ACE72CB7C74B
:101ED40000309457B7C700300967558F98D7B72794
:101EE40000801386E71EC1450145EFE06FC98545B3
:101EF4004145EFE02FCEC1450145EFE08FD0B72734
:101F040000801386A7FCC5450145EFE06FC78545F2
:101F14004545EFE02FCCC5450145EFE08FCEB7171F
:101F240000409387078003A78711B7170040938762
:101F3400078023ACE710B71700409387078003A7F7
:101F44008711B71700409387078023ACE710B717B2
:101F540000409387078003A74711B7070520A1070F
:101F64005D8FB71700409387078023AAE710B71740
:101F740000409387078003A78711B7170040938712
:101F8400078023ACE710B71700409387078003A7A7
:101F94008711B70718005D8FB71700409387078034
:101FA40023ACE710B71700409387078003A7871176
:101FB400B71700409387078023ACE7100100B240B5
:101FC400224441018280411106C622C40008B7C7D9
:101FD4000030B84B8967F98F63840720B7C7003096
:101FE4000967F8CBB7270030239E0700B7C7003036
:101FF400985B8967F98FE9CBB7170040938707800F
:1020040003A7870DB70700605D8FB717004093875C
:10201400078023ACE70CB71700409387078083A79A
:10202400870D13E70712B71700409387078023AC87
:10203400E70CB71700409387078003A7870DB717EE
:1020440000409387078023ACE70CB707004083C7A1
:10205400C72493F7F70F3E87B7170040938707C04D
:10206400BA97138701C883460700B68E83461700C4
:10207400368E83462700368383463700B6888346E8
:102084004700368883465700368583466700B68501
:10209400834677003686834687000347970023806C
:1020A400D701A380C70123816700A381170123827D
:1020B4000701A382A7002383B700A383C700238457
:1020C400D700A384E700C1A8B7170040938707800F
:1020D40003A7872DB70700605D8FB717004093876C
:1020E400078023ACE72CB71700409387078083A7AA
:1020F400872D13E70712B71700409387078023AC97
:10210400E72CB71700409387078003A7872DB717DD
:1021140000409387078023ACE72CB707004083C7B0
:10212400C72493F7F70F3E87B7170040938707C07C
:10213400BA971387C1C883460700B68E8346170033
:10214400368E83462700368383463700B688834617
:102154004700368883465700368583466700B68530
:10216400834677003686834687000347970023809B
:10217400D701A380C70123816700A38117012382AC
:102184000701A382A7002383B700A383C700238486
:10219400D700A384E700B707004083C7C72493F799
:1021A400F70F1387A7009357F741E1833E971377FF
:1021B400F70FB307F74013F7F70FB707004023866D
:1021C400E724B7270030DC43B72700304167130703
:1021D40087DED8C3B7270030130780DE239EE700CD
:1021E4000100B240224441018280411106C622C44A
:1021F4000008B7C70030BC4B93F7074089CFB787B7
:102204000030B847B7870030759BB8C7B7C70030F0
:1022140013070040F8CB0100B24022444101828000
:10222400797106D622D40018AA87A30FF4FCA30759
:1022340004FE2DA00347F4FEB77700809387470878
:10224400BA9783C707000347F4FD6314F700854773
:1022540021A88347F4FE8507A307F4FE0347F4FE91
:102264008947E3F9E7FC81473E85B2502254456132
:102274008280797106D622D40018AA87A30FF4FCB1
:10228400A30704FE3DA88347F4FE377700801307B5
:102294008708BA9783C707000347F4FD631EF70056
:1022A4008347F4FE3777008013070709BA978387BB
:1022B400070093F7F70F29A88347F4FE8507A307C0
:1022C400F4FE0347F4FE9147E3FFE7FA9307F00FA8
:1022D4003E85B250225445618280011106CE22CC43
:1022E4000010AA87A307F4FEB707004083C787241A
:1022F40011476368F72213972700B7770080938705
:1023040007E7BA979C4382870347F4FEA9476317FC
:10231400F720B707004005472384E724B7070040A8
:102324000347F4FEA384E724D5AA8347F4FE3E853D
:10233400C53DAA87A9CBB707004009472384E724F2
:10234400B707004083C7E72493F7F70F3E87B71713
:102354000040938607D0BA878E07998F8A07998F92
:10236400B6970347F4FE2380E700B707004083C70E
:1023740097240347F4FEB98F13F7F70FB70700400C
:10238400A384E72479AAB70700402384072451AA29
:102394008347F4FE3E85F13DAA873E87B707004098
:1023A4002385E724B707004003C7A7249307F00F4A
:1023B4006317F700B7070040238407249DA2B707DB
:1023C4000040A3850724B707004083C7E72493F799
:1023D400F70F3E87B7170040938607D0BA878E075A
:1023E400998F8A07998FB6970347F4FEA380E70075
:1023F400B707004083C797240347F4FEB98F13F748
:10240400F70FB7070040A384E724B707004083C74A
:10241400A72499C38D4711A091473707004023048F
:10242400F72401A2B707004083C7E72493F7F70F07
:102434003E87B707004083C7B7243E86B7170040DE
:10244400938607D0BA878E07998F8A07998FB69794
:10245400B2970347F4FE2381E700B707004083C720
:10246400B724850713F7F70FB7070040A385E724C0
:10247400B707004083C797240347F4FEB98F13F7C7
:10248400F70FB7070040A384E724B707004003C74A
:10249400B724B707004083C7A7246363F708B707C7
:1024A400004011472384E724A5A8B707004083C749
:1024B40097240347F4FE631EF704B707004083C75D
:1024C400E72493F7F70F3E87B707004083C6A72496
:1024D400B7170040138607D0BA878E07998F8A07EB
:1024E400998FB297238DD700B707004083C7E7249D
:1024F40093F7F70F138717009357F741F9833E9724
:102504000D8BB307F74013F7F70FB7070040238786
:10251400E724B70700402384072421A0010011A069
:1025240001000100F240624405618280011106CE7F
:1025340022CC00102326A4FE2324B4FEB287A303D6
:10254400F4FEB7D7003037E70F8098C3B7D7003011
:102554003707DEC01107F8C30100B7D70030BC4706
:10256400858BE5FFB7D7003037E70F8098C3832703
:10257400C4FE83C707003E878327C4FE850783C73D
:10258400070092075D8F8327C4FE890783C707006E
:10259400A2075D8F8327C4FE8D0783C70700B20798
:1025A4005D8F8327C4FE910783C70700C2075D8F31
:1025B4008327C4FE950783C70700D2075D8F83274F
:1025C400C4FE990783C70700E2075D8F8327C4FE13
:1025D4009D0783C70700F2075D8FB7D70030D8C3C4
:1025E400B7D700303707DEC00907F8C30100B7D7F3
:1025F4000030BC47858BE5FF8327C4FE83C70700F3
:102604009387070313F7F70F832784FE9D07620759
:1026140061872380E7008327C4FE850783C70700FB
:102624009387070313F7F70F832784FEA107620735
:1026340061872380E7008327C4FE890783C70700D7
:102644009387070313F7F70F832784FEB9076207FD
:1026540061872380E7008327C4FE8D0783C70700B3
:102664009387070313F7F70F832784FEBD076207D9
:1026740061872380E7008327C4FE910783C707008F
:102684009387070313F7F70F832784FEDD07620799
:1026940061872380E7008327C4FE950783C707006B
:1026A4009387070313F7F70F832784FEE107620775
:1026B40061872380E7008327C4FE990783C7070047
:1026C4009387070313F7F70F832784FEF90762073D
:1026D40061872380E7008327C4FE9D0783C7070023
:1026E4009387070313F7F70F832784FEFD07620719
:1026F40061872380E700B707004083C7070013F70B
:10270400F70F85476317F700032684FE81450145CB
:1027140015250100F240624405618280797106D674
:1027240022D40018232EA4FC232CB4FCB287A30BC0
:10273400F4FCA30704FE35A0B72700280547D8C733
:1027440013054006EFE0AFFEB7270028054798C7FA
:1027540013054006EFE0AFFD8347F4FE8507A307AA
:10276400F4FE0347F4FE9147E3F8E7FC010001009F
:10277400B250225445618280797106D622D4001861
:10278400232EA4FC232CB4FCB287A30BF4FCA307D4
:1027940004FE0DA02D2E13054006EFE04FF9492E3F
:1027A400B7570080138507E789218347F4FE85071F
:1027B400A307F4FE0347F4FEBD47E3FDE7FC010075
:1027C4000100B250225445618280011106CE22CC10
:1027D40000102326A4FE2324B4FEB287A303F4FE30
:1027E400812E0100F240624405618280797106D62F
:1027F40022D40018232EA4FC232CB4FCB287A30BF0
:10280400F4FC930710502316F4FE9307C4FE1387B9
:102814001700B71700409387078023A0E70AB7176C
:1028240000409387078003A7870AB70700205D8FBE
:10283400B71700409387078023A4E70AB71700401F
:102844009387078083A7870A13E70702B717004017
:102854009387078023A4E70AB7170040938707806C
:1028640003A7870AB71700409387078023A4E70AC2
:10287400B7C700309857B7C700301367074098D7D9
:10288400B7870030B847B787003013672700B8C749
:102894000100B250225445618280011106CE22CC3F
:1028A4000010AA87A307F4FE0100B7070520DC4740
:1028B400C18BE5FFB70705200347F4FE98C7010065
:1028C400B7070520DC47C18BE5FF01000100F2409A
:1028D400624405618280011106CE22CC0010AA87D1
:1028E400A307F4FEB717002813070004D8C7B717C7
:1028F400002813070002D8C78347F4FE3E85713FC2
:10290400B71700281307000298C70100F240624479
:1029140005618280011106CE22CC0010AA87A3078C
:10292400F4FEB71700281307000498C7B717002848
:1029340013070002D8C78347F4FE3E85B93FB71793
:1029440000281307000298C70100F24062440561A1
:102954008280411106C622C40008B71700284147E7
:1029640098C713054006EFE08FDCB71700284147EE
:10297400D8C713054006EFE08FDBB717002841479F
:1029840098C713054006EFE08FDA1305D00FA1377F
:10299400494549371305E00A3D3F1305300B253FF0
:1029A40013051009853F1305A00C35371305F003F3
:1029B40095371305200A05370145A93F1305100A69
:1029C400193F0145813F1305000A313751459937B5
:1029D400454589371305B00AFD3D0545253F1305D7
:1029E400400BD53D1305000A35371305D00F1D37AD
:1029F4001305100CCD350545313F1305700CE13D31
:102A04003D45093F1305100BF9351305200E193701
:102A14001305100DC93513052008ED3D13050002FB
:102A2400D53D1305B00B453D7D45ED351305600BD4
:102A34005D352145C5351305E00B713D1D45D93D77
:102A44001305600A493D1305F00A71350100B240CF
:102A5400224441018280797106D622D40018AA87C3
:102A6400A30FF4FCA30704FEA1A08346F4FEB7471A
:102A740000801387C7A093074007B387F602BA976D
:102A8400838707000307F4FD631FF7000347F4FE81
:102A9400930740073307F702B74700809387C7A01F
:102AA400BA97910705A08347F4FE8507A307F4FEB0
:102AB4000347F4FE9307C002E3F9E7FAB75700802F
:102AC400938707E03E85B25022544561828001110C
:102AD40006CE22CC00105545FD3B7145253D13051E
:102AE400B0050D3D13055007FD330145253513058C
:102AF400F0070D351305C005F93B232604FE29A86C
:102B040093050010B7770080138547E8812A83274F
:102B1400C4FE85072326F4FE0327C4FE9307F003AF
:102B2400E3F0E7FE01000100F240624405618280A7
:102B3400011106CE22CC00105545713B7145D93B9D
:102B44001305B005C13B1305500771330145D93353
:102B54001305F007C1331305C005B53B232604FE56
:102B640029A893050010B7770080138547F8FD2046
:102B74008327C4FE85072326F4FE0327C4FE930798
:102B8400F003E3F0E7FE01000100F2406244056156
:102B94008280011106CE22CC0010AA872E87A307BB
:102BA400F4FEBA872307F4FE554535338347F4FE14
:102BB400858393F7F70FF10793F7F70F3E85993B5A
:102BC4001305B005813B1305500731338347E4FEF9
:102BD4003E8589331305F003353B1305C005E539FC
:102BE4000100F240624405618280797106D622D4E4
:102BF4000018232EA4FC232404FE5545E93971450D
:102C0400113B1305B005393313055007E93101456C
:102C140011331305F007FD391305C0056D3923265B
:102C240004FE0DA0930500100325C4FD0528832789
:102C3400C4FD93870710232EF4FC8327C4FE850765
:102C44002326F4FE0327C4FE9307F003E3FCE7FC0A
:102C540001000100B250225445618280011106CE68
:102C640022CC00102326A4FEAE872315F4FEB7174A
:102C740000281307000498C7B71700281307000299
:102C8400D8C78357A4FEFD170327C4FEBA973E870F
:102C9400B71700409387078023A8E710B7170040B1
:102CA4009387078003A78711B70700205D8FB717A5
:102CB40000409387078023ACE710B7170040938741
:102CC400078003A787118357A4FEFD1796075D8F1E
:102CD400B71700409387078023ACE710B7C70030CD
:102CE4009457B7C7003037070200558F98D7B707F6
:102CF4000520D853B707052013672700D8D3010050
:102D0400B71700409387078083A78711F58393F74C
:102D1400F70FFDF70100B7070520DC47C18BE5FF7E
:102D2400B71700281307000298C70100F240624455
:102D3400056182802971232E1112232C81128002B5
:102D4400AA872E872324C4ECA307F4ECBA872307AD
:102D5400F4EC8347F4ECA307F4FE8347E4EC230785
:102D6400F4FEA30604FE2DAC230604FEA30504FE14
:102D7400ADA885472305F4FE0347D4FE8347B4FE7C
:102D8400BA973E87832784ECBA9703870700930793
:102D940000FD6301F7020347D4FE8347B4FEBA97EC
:102DA4003E87832784ECBA9703870700930710FDB7
:102DB4006315F70089472305F4FE0347F4FE8347B0
:102DC400C4FE85078E073E979307000863CCE7028D
:102DD4008347C4FE85072306F4FE8347B4FE3E877B
:102DE4008347A4FEBA97A305F4FE0347D4FE8347A2
:102DF400B4FEBA973E87832784ECBA97838707008B
:102E0400ADFB11A001008347C4FE85EBA30704FEBC
:102E14008347E4FE938707022307F4FE0347E4FE97
:102E24009307C00363FEE716230704FE896713852F
:102E34000771EFE0CF8FED39A5A2A30404FE15AA14
:102E44008347E4FE3E87834794FEBA9713F7F70F50
:102E54008347F4FEBA853E852D3B230404FE834755
:102E6400D4FEA303F4FE230304FEE1A8834774FE07
:102E7400032784ECBA9703870700930700FD630DCB
:102E8400F700834774FE032784ECBA97038707008F
:102E9400930710FD6317F700834774FE8507A303A8
:102EA400F4FE834774FE032784ECBA9783870700F4
:102EB4003E8555362320A4FE834794FE8A070327C4
:102EC40004FEBA979C43232EF4FCA30204FE89A0BB
:102ED400834754FE1947B307F7400547B317F70074
:102EE4003E878327C4FDF98F81C79307F00F11A094
:102EF4008147034784FE930617002304D4FE411739
:102F040022972306F7EE834754FE8507A302F4FEB7
:102F1400034754FE9947E3FDE7FA834784FE13878A
:102F240017002304E4FEC117A297238607EE834704
:102F340074FE8507A303F4FE834764FE8507230319
:102F4400F4FE034764FE8347C4FEE361F7F283475C
:102F5400C4FEC207C1838E071397070141839307F9
:102F6400C4EDBA853E85DD39834794FE8507A30405
:102F7400F4FE034794FEED47E3F4E7EC8347D4FE05
:102F84003E878347B4FEBA97A306F4FE8347C4FE84
:102F94008E0793F7F70F0347F4FEBA97A307F4FEDF
:102FA4008347D4FE032784ECBA9783870700E39D05
:102FB40007DA010001008320C11303248113316166
:102FC4008280797106D622D40018AA87AE86328709
:102FD400A30FF4FCB687230FF4FCBA87A30EF4FC0A
:102FE400A30704FE1DA08347D4FD81C79307F00FF8
:102FF40011A081470347F4FE41172297230AF7FEE5
:103004008347F4FE8507A307F4FE0347F4FE9D47B8
:10301400E3FBE7FC230704FE05A88347E4FD3E87A2
:103024008347E4FEBA9713F7F70F8347F4FDBA8595
:103034003E858536930744FEA1453E850531834789
:10304400E4FE85072307F4FE0347E4FE8547E3F621
:10305400E7FC01000100B25022544561828079717D
:1030640006D622D426D24AD00018AA87A30FF4FC8D
:103074008347F4FDB5CFB707004083C7070093F734
:10308400F70F3E8785476314F70CB707004083C7E3
:10309400A72693F4F70FB707004083C7370093F7C9
:1030A400F70F8D1713F9F70FB707004083C7A7264B
:1030B40013F7F70FB707004083C7370093F7F70FED
:1030C400BE853A856128AA873E87B7070040938763
:1030D400C710BA97838707002306F4FEA30604FEED
:1030E4009307C4FE3E86CA852685A931010085A0C2
:1030F400232204FE232404FEA30704FEA1A0B70791
:10310400004083C7A72613F7F70FB707004083C70C
:10311400370093F7F70F8346F4FEB69793F7F70F4C
:103124008D1793F7F70FBE853A85EFF09FA69307A7
:1031340044FEA1453E85EFF07FB28347F4FE850748
:10314400A307F4FE0347F4FEED47E3FAE7FA0100B0
:10315400B25022549254025945618280011106CE24
:1031640022CC0010AA872E87A307F4FEBA87230770
:10317400F4FE8347E4FE958393F7F70F920713F762
:10318400F70F8347F4FE8D8393F7F70FBA9793F7FE
:10319400F70F3E85F240624405618280797106D65C
:1031A40022D40018232EA4FCAE87232AC4FC36871D
:1031B400A30DF4FCBA87230DF4FCB7F70F809C43EE
:1031C4002324F4FE832784FE1397870161878327D2
:1031D400C4FD2380E700832784FE13D78700832759
:1031E400C4FDC107620761872380E700A30704FECB
:1031F400A9A88327C4FD038707008347F4FE832619
:1032040044FDB697838707006318F700B7070040AB
:103214000347F4FEA380E7008327C4FDC1070387A7
:1032240007008347F4FE832644FDB697838707008F
:103234006318F700B70700400347F4FE2381E70053
:103244008347F4FE8507A307F4FE0347F4FE834790
:10325400A4FDE360F7FAB7E70F809C432324F4FE50
:10326400832784FE93F7F70FBD8B93F7F70F9387AC
:10327400070313F7F70F8327C4FD9D0762076187D0
:103284002380E700832784FE918393F7F70FBD8B98
:1032940093F7F70F9387070313F7F70F8327C4FDFB
:1032A400A107620761872380E700832784FEA18347
:1032B40093F7F70FBD8B93F7F70F9387070313F774
:1032C400F70F8327C4FDB907620761872380E700EE
:1032D400832784FEB18393F7F70FBD8B93F7F70F22
:1032E4009387070313F7F70F8327C4FDBD0762070E
:1032F40061872380E700832784FEC18393F7F70F58
:10330400BD8B93F7F70F9387070313F7F70F832703
:10331400C4FDDD07620761872380E700832784FEFD
:10332400D18393F7F70FBD8B93F7F70F93870703B9
:1033340013F7F70F8327C4FDE10762076187238032
:10334400E700832784FEE18393F7F70FBD8B93F7A0
:10335400F70F9387070313F7F70F8327C4FDF907C4
:10336400620761872380E700832784FEF18393F754
:10337400F70F9387070313F7F70F8327C4FDFD07A0
:10338400620761872380E7000100B250225445613F
:1033940082803288AA882E87D5EA63FFC50EC1676A
:1033A400636CF618B7070001E1466373F600C14683
:1033B4003353D60097070000938747529A9783C7E1
:1033C400070013030002B697B306F340630BF30040
:1033D4003397D500B357F5005D8F3318D600B31873
:1033E400D500135608013355C70293160801C1824C
:1033F40093D708013377C702B385A6024207D98F52
:1034040063FAB700C2971307F5FF63E4070163EE9D
:10341400B7303A858D8F33D7C702C20893D80801D5
:10342400B3F7C702B386E602C207B3E8F80063FB4A
:10343400D800C2989307F7FF63E50801791763E39F
:10344400D8003E874205598D8145828063F5D500B9
:10345400814501458280C16763E8F618370700019A
:10346400E14763F3E600C14733D8F60017070000CD
:103474001307C746429703470700130800023E9705
:10348400B308E8406317E81863E3B6283335C5008A
:10349400133515008145828055C6C1676371F626D0
:1034A40013370610133717000E07B356E6009707B5
:1034B40000009387A742B69783C7070093060002CC
:1034C400BA97B38EF640639FF608B387C540935608
:1034D400060142064182854533D5D70213D7080138
:1034E400B3F7D7023303C502C207D98F63FA670063
:1034F400C2971307F5FF63E4070163E567223A8582
:10350400B387674033D7D702C20893D80801B3F70B
:10351400D7023306C702C207B3E8F80063FBC8004A
:10352400C2989307F7FF63E50801791763E3C800BE
:103534003E874205598D82809336061093B6160055
:103544008E06BDB581469707000093872739B69745
:1035540083C70700014793060002BA97B38EF6406B
:10356400E385F6F63318D60133D3F50093560801F4
:10357400335ED30213160801B395D5014182B357C4
:10358400F500CD8F13D70701B318D5013373D302D8
:10359400B305C603420333676700637BB7004297F2
:1035A4001305FEFF636C0717637AB716791E4297FB
:1035B4000D8F3355D702C207C1833377D702330344
:1035C400A6024207D98F63FB6700C2971307F5FF72
:1035D40063E2071563F067147915C29793150E011A
:1035E400C98DB3876740CDBD93B7061093B7170055
:1035F4008E0733D8F600170700001307272E4297CB
:1036040003470700130800023E97B308E840E30DA0
:10361400E8E6335EE600B3961601336EDE0033D877
:10362400E500935E0E01B357D80313130E01B3954F
:103634001501135303013357E5004D8F93560701CA
:10364400331616013378D803B305F3024208B3E600
:10365400060163FBB600F2961388F7FF63E2C60D1A
:1036640063F0B60CF917F2968D8E33D8D603420761
:103674004183B3F6D603B3050303C206558F637BB8
:10368400B70072979306F8FF6368C7096376B708B3
:1036940079187297C2079316080113130601B3E74A
:1036A4000701C1821353030113D807014182330E6A
:1036B40068020D8F33836602B386C60293550301F5
:1036C400F296AE963308C80263F4C6014166329896
:1036D40013D6060142966360C7026305C7003E85A0
:1036E40081458280420313530301C2063315150139
:1036F4009A96E376D5FE1385F7FF81458280B70756
:1037040000016377F6029356060141474DB38145A4
:10371400054582803A85D9B53688ADBF2A8E49BD24
:10372400C28799B77915C297E1BB7915C297DDB104
:10373400935686016147A5BB3D432A876373C30241
:103744009377F700BDEFADE5937606FF3D8ABA9611
:103754000CC34CC30CC74CC74107E36BD7FE11E243
:103764008280B306C3408A0697020000969667805B
:10377400A6002307B700A306B7002306B700A305D6
:10378400B7002305B700A304B7002304B700A303BD
:10379400B7002303B700A302B7002302B700A301B5
:1037A400B7002301B700A300B7002300B70082804D
:1037B40093F5F50F93968500D58D93960501D58DD8
:1037C40061B7939627009702000096968682E78059
:1037D40086FA9680C1171D8F3E96E374C3F8A5B789
:1037E400B3C7A5008D8BB308C500B1E78D4763F45B
:1037F400C704937735002A87DDE713F6C8FFB306BD
:10380400E6409307000263C4D704AE86BA876371A7
:10381400C70203A806009107910623AE07FFE3EA57
:10382400C7FE7D16198E719A91051107B2953297CC
:103834006366170182802A87E37E15FF83C705002C
:1038440005078505A30FF7FEE39AE8FE82809451ED
:1038540083A3050083A2450083AF850003AFC500A1
:1038640083AE050103AE450103A3850103A8C50189
:1038740013074702232ED7FE232E77FCB306E64018
:10388400232057FE2322F7FF2324E7FF2326D7FF15
:103894002328C7FF232A67FE232C07FF93854502AD
:1038A400E3C7D7FA9DB783C60500050793773700AA
:1038B400A30FD7FE8505B1D383C60500050793770B
:0C38C4003700A30FD7FE8505F9FF05BFF4
:1038D0008EE30A41000080420000003F0001020226
:1038E0000303030304040404040404040505050598
:1038F0000505050505050505050505050606060674
:103900000606060606060606060606060606060657
:103910000606060606060606060606060707070743
:103920000707070707070707070707070707070727
:103930000707070707070707070707070707070717
:103940000707070707070707070707070707070707
:1039500007070707070707070707070708080808F3
:1039600008080808080808080808080808080808D7
:1039700008080808080808080808080808080808C7
:1039800008080808080808080808080808080808B7
:1039900008080808080808080808080808080808A7
:1039A0000808080808080808080808080808080897
:1039B0000808080808080808080808080808080887
:1039C0000808080808080808080808080808080877
:1039D000080808080808080808080808DA05008028
:1039E000DA050080DA050080DA050080DA0500805B
:1039F000DA050080DA050080DA050080DA0500804B
:103A0000DA050080DA050080DA050080C0000000D9
:103A1000080000001C0000003E0000003E00000006
:103A2000630000006300000063000000630000000A
:103A300063000000630000006300000063000000FA
:103A400063000000630000006300000063000000EA
:103A50007F0000007F0000007F0000007F0000006A
:103A600063000000630000006300000063000000CA
:103A700063000000630000006300000063000000BA
:103A8000C10000007F0000007F0000007F000000F8
:103A90007F00000060000000600000006000000087
:103AA0006000000060000000600000006000000096
:103AB000600000007C0000007C0000007E00000030
:103AC0007E0000006300000063000000630000004F
:103AD000630000006300000063000000630000005A
:103AE000630000007E0000007E0000007C000000FB
:103AF0007C000000C20000007C0000007C00000090
:103B00007E0000007E0000006300000063000000F3
:103B10006300000063000000630000006300000019
:103B200063000000630000007E0000007C000000D5
:103B30007C0000007E0000006300000063000000C5
:103B400063000000630000006300000063000000E9
:103B500063000000630000007E0000007E000000A3
:103B60007C0000007C000000C30000007F0000001B
:103B70007F0000007F0000007F0000006000000068
:103B800060000000600000006000000060000000B5
:103B900060000000600000006000000060000000A5
:103BA0006000000060000000600000006000000095
:103BB0006000000060000000600000006000000085
:103BC0006000000060000000600000006000000075
:103BD000600000006000000060000000C400000001
:103BE00007000000070000000F0000000F000000A9
:103BF0001B0000001B0000001B0000001B00000059
:103C000033000000330000003300000033000000E8
:103C100033000000330000003300000033000000D8
:103C200033000000330000003300000033000000C8
:103C30007F0000007F0000007F0000007F00000088
:103C400063000000630000006300000063000000E8
:103C5000C50000007F0000007F0000007F00000022
:103C60007F000000600000006000000060000000B5
:103C700060000000600000006000000060000000C4
:103C8000600000007C0000007C0000007C00000060
:103C90007C00000060000000600000006000000088
:103CA0006000000060000000600000006000000094
:103CB000600000007F0000007F0000007F00000027
:103CC0007F000000C60000006B0000006B000000D9
:103CD0006B0000006B0000006B0000006B00000038
:103CE0006B0000006B0000006B0000006B00000028
:103CF0006B0000006B0000003E0000003E00000072
:103D00003E0000003E0000006B0000006B00000061
:103D10006B0000006B0000006B0000006B000000F7
:103D20006B0000006B0000006B0000006B000000E7
:103D30006B0000006B000000C70000001C000000CA
:103D40001C0000003E0000003E0000006300000078
:103D50006300000063000000630000000300000037
:103D60000300000003000000030000001E0000002C
:103D70001C0000001C0000001E00000003000000EA
:103D800003000000030000000300000063000000C7
:103D90006300000063000000630000003E000000BC
:103DA0003E0000001C0000001C000000C8000000D5
:103DB0006300000063000000630000006300000077
:103DC0006300000063000000630000006300000067
:103DD0006700000067000000670000006700000047
:103DE0006B0000006B0000006B0000006B00000027
:103DF00073000000730000007300000073000000F7
:103E00006300000063000000630000006300000026
:103E10006300000063000000630000006300000016
:103E2000C90000006B0000006B0000006B00000088
:103E30006B000000630000006300000063000000EE
:103E400063000000670000006700000067000000DA
:103E5000670000006B0000006B0000006B000000BA
:103E60006B0000007300000073000000730000008E
:103E700073000000630000006300000063000000A6
:103E800063000000630000006300000063000000A6
:103E900063000000CA00000063000000630000002F
:103EA0006300000063000000660000006600000080
:103EB00066000000660000006C0000006C0000005E
:103EC0006C0000006C00000078000000780000002A
:103ED00078000000780000006C0000006C0000001A
:103EE0006C0000006C00000066000000660000002E
:103EF0006600000066000000630000006300000030
:103F00006300000063000000CB0000000F00000011
:103F10000F0000001F0000001F0000003300000021
:103F200033000000330000003300000033000000C5
:103F300033000000330000003300000033000000B5
:103F400033000000330000003300000033000000A5
:103F50003300000033000000330000003300000095
:103F60003300000033000000330000007300000045
:103F7000730000007300000073000000CC0000001C
:103F800041000000410000006300000063000000E9
:103F90007700000077000000770000007700000045
:103FA0006B0000006B0000006B0000006B00000065
:103FB0006B0000006B0000006B0000006B00000055
:103FC0006300000063000000630000006300000065
:103FD0006300000063000000630000006300000055
:103FE0006300000063000000630000006300000045
:103FF000CD000000630000006300000063000000CB
:104000006300000063000000630000006300000024
:104010006300000063000000630000006300000014
:10402000630000007F0000007F0000007F000000B0
:104030007F000000630000006300000063000000D8
:1040400063000000630000006300000063000000E4
:1040500063000000630000006300000063000000D4
:1040600063000000CE0000001C0000001C000000E7
:104070003E0000003E0000006300000063000000FE
:1040800063000000630000006300000063000000A4
:104090006300000063000000630000006300000094
:1040A0006300000063000000630000006300000084
:1040B0006300000063000000630000006300000074
:1040C00063000000630000003E0000003E000000AE
:1040D0001C0000001C000000CF0000007F0000005A
:1040E0007F0000007F0000007F00000063000000F0
:1040F0006300000063000000630000006300000034
:104100006300000063000000630000006300000023
:104110006300000063000000630000006300000013
:104120006300000063000000630000006300000003
:1041300063000000630000006300000063000000F3
:1041400063000000630000006300000050000000F6
:104150007C0000007C0000007E0000007E0000006B
:1041600063000000630000006300000063000000C3
:1041700063000000630000006300000063000000B3
:104180007E0000007E0000007C0000007C0000003B
:10419000600000006000000060000000600000009F
:1041A000600000006000000060000000600000008F
:1041B000600000006000000060000000600000007F
:1041C000430000001C0000001C0000003E00000036
:1041D0003E00000063000000630000006300000078
:1041E000630000006000000060000000600000004C
:1041F000600000006000000060000000600000003F
:10420000600000006000000060000000600000002E
:104210006000000063000000630000006300000015
:10422000630000003E0000003E0000001C00000093
:104230001C000000D20000007F0000007F00000092
:104240007F0000007F0000001C0000001C00000038
:104250001C0000001C0000001C0000001C000000EE
:104260001C0000001C0000001C0000001C000000DE
:104270001C0000001C0000001C0000001C000000CE
:104280001C0000001C0000001C0000001C000000BE
:104290001C0000001C0000001C0000001C000000AE
:1042A0001C0000001C000000D300000063000000A0
:1042B0006300000063000000630000006300000072
:1042C0006300000063000000630000006300000062
:1042D0006300000063000000630000003F00000076
:1042E0003F0000001F0000001F000000030000004E
:1042F0000300000003000000030000006300000052
:104300006300000063000000630000003E00000046
:104310003E0000001C0000001C000000D400000053
:104320001C0000001C0000003E0000003E000000D9
:104330006B0000006B0000006B00000049000000F3
:104340004900000049000000490000004900000049
:10435000490000006B0000006B0000006B000000D3
:104360003E0000003E0000003E0000003E00000055
:104370001C0000001C0000001C0000001C000000CD
:104380001C0000001C0000001C0000001C000000BD
:10439000D50000006300000063000000630000001F
:1043A0006300000063000000630000006300000081
:1043B00063000000360000003600000036000000F8
:1043C000360000001C0000001C0000001C00000063
:1043D0001C0000003600000036000000360000001F
:1043E000360000006300000063000000630000006E
:1043F0006300000063000000630000006300000031
:1044000063000000D60000006600000066000000A7
:104410006600000066000000660000006600000004
:1044200066000000660000006600000066000000F4
:1044300066000000660000006600000066000000E4
:1044400066000000660000006600000066000000D4
:1044500066000000660000007E0000007E00000094
:104460003E0000003E0000000300000003000000CA
:104470000300000003000000D700000063000000FC
:1044800063000000630000006300000063000000A0
:104490006300000063000000630000006300000090
:1044A0006300000063000000630000006300000080
:1044B0006300000063000000630000003F00000094
:1044C0003F0000001F0000001F000000030000006C
:1044D00003000000030000000300000003000000D0
:1044E000030000000300000003000000D8000000EB
:1044F0006B0000006B0000006B0000006B00000010
:104500006B0000006B0000006B0000006B000000FF
:104510006B0000006B0000006B0000006B000000EF
:104520006B0000006B0000006B0000006B000000DF
:104530006B0000006B0000006B0000006B000000CF
:104540006B0000006B0000006B0000006B000000BF
:104550007F0000007F0000007F0000007F0000005F
:10456000D90000006B0000006B0000006B00000031
:104570006B0000006B0000006B0000006B0000008F
:104580006B0000006B0000006B0000006B0000007F
:104590006B0000006B0000006B0000006B0000006F
:1045A0006B0000006B0000006B0000006B0000005F
:1045B0006B0000007F0000007F0000007F00000013
:1045C0007F00000003000000030000000300000063
:1045D00003000000DA00000070000000700000001E
:1045E000700000007000000030000000300000008B
:1045F00030000000300000003000000030000000FB
:1046000030000000300000003E0000003E000000CE
:104610003E0000003E0000003300000033000000B8
:1046200033000000330000003300000033000000BE
:1046300033000000330000003E0000003E00000098
:104640003E0000003E000000DB00000063000000B0
:1046500063000000630000006300000063000000CE
:1046600063000000630000006300000063000000BE
:10467000630000006300000063000000730000009E
:10468000730000007B0000007B0000004B00000076
:104690004B0000004B0000004B0000004B000000EE
:1046A0004B0000004B0000004B0000007B000000AE
:1046B0007B0000007300000073000000DC000000BD
:1046C000600000006000000060000000600000006A
:1046D000600000006000000060000000600000005A
:1046E000600000006000000060000000600000004A
:1046F0007C0000007C0000007E0000007E000000C6
:10470000630000006300000063000000630000001D
:10471000630000006300000063000000630000000D
:104720007E0000007E0000007C0000007C00000095
:10473000DD0000003E0000003E0000003E000000E2
:104740003E00000063000000630000006300000002
:1047500063000000030000000300000003000000ED
:10476000030000000F0000000F0000000F00000019
:104770000F00000003000000030000000300000021
:1047800003000000630000006300000063000000FD
:10479000630000003E0000003E0000003E000000FC
:1047A0003E000000DE000000660000006600000021
:1047B000660000006600000069000000690000005B
:1047C0006900000069000000690000006900000045
:1047D0006900000069000000790000007900000015
:1047E0007900000079000000690000006900000005
:1047F0006900000069000000690000006900000015
:10480000690000006900000066000000660000000A
:104810006600000066000000DF0000001F000000CE
:104820001F0000003F0000003F0000006300000088
:1048300063000000630000006300000063000000EC
:104840006300000063000000630000003F00000000
:104850003F0000001F0000001F0000000F000000CC
:104860000F0000001B0000001B00000033000000D0
:10487000330000003300000033000000630000003C
:10488000630000006300000063000000640000009B
:10489000030000000300000003000000030000000C
:1048A00003000000030000000300000003000000FC
:1048B00003000000030000000300000003000000EC
:1048C0001F0000001F0000003F0000003F0000002C
:1048D000630000006300000063000000630000004C
:1048E000630000006300000063000000630000003C
:1048F0003F0000003F0000001F0000001F000000FC
:10490000300000001C0000001C0000003E00000001
:104910003E00000063000000630000006300000030
:1049200063000000630000006300000063000000FB
:1049300063000000630000006300000063000000EB
:1049400063000000630000006300000063000000DB
:1049500063000000630000006300000063000000CB
:10496000630000003E0000003E0000001C0000004C
:104970001C000000310000000C0000000C000000D2
:104980001C0000001C0000007C0000007C000000F7
:104990007C0000007C0000001C0000001C000000E7
:1049A0001C0000001C0000001C0000001C00000097
:1049B0001C0000001C0000001C0000001C00000087
:1049C0001C0000001C0000001C0000001C00000077
:1049D0001C0000001C0000007F0000007F000000A1
:1049E0007F0000007F000000320000001C0000007B
:1049F0001C0000003E0000003E00000063000000BC
:104A0000630000006300000063000000030000007A
:104A10000300000003000000030000000600000087
:104A2000060000000E0000000E0000001C00000048
:104A30001C000000180000001800000030000000FA
:104A40003000000030000000300000007F00000057
:104A50007F0000007F0000007F00000033000000A6
:104A60007F0000007F0000007F0000007F0000004A
:104A70000C0000000C0000000C0000000C00000006
:104A800018000000180000001800000018000000C6
:104A90000C0000000C0000000E0000000E000000E2
:104AA00007000000070000000300000003000000F2
:104AB000630000006300000063000000630000006A
:104AC0003E0000003E0000003E0000003E000000EE
:104AD000340000000E0000000E0000000E00000078
:104AE0000E0000001E0000001E0000001E0000005E
:104AF0001E000000360000003600000036000000F6
:104B0000360000006600000066000000660000003D
:104B1000660000007F0000007F0000007F000000B2
:104B20007F000000060000000600000006000000F4
:104B3000060000000600000006000000060000005D
:104B400006000000350000007F0000007F0000002C
:104B50007F0000007F000000600000006000000097
:104B600060000000600000007C0000007C0000008D
:104B70003E0000003E0000000300000003000000B3
:104B80000300000003000000030000000300000019
:104B90000300000003000000630000006300000049
:104BA00063000000630000003E0000003E000000C3
:104BB0003E0000003E000000360000001C00000027
:104BC0001C0000001C0000001C0000003000000061
:104BD00030000000300000003000000060000000E5
:104BE0006000000060000000600000007C00000029
:104BF0007C0000007E0000007E00000063000000DA
:104C00006300000063000000630000006300000018
:104C10006300000063000000630000003E0000002D
:104C20003E0000003E0000003E0000003700000093
:104C30007F0000007F0000007F0000007F00000078
:104C40000300000003000000070000000700000050
:104C50000E0000000E0000000C0000000C00000020
:104C600018000000180000001800000018000000E4
:104C70003000000030000000300000003000000074
:104C80003000000030000000300000003000000064
:104C90003000000030000000300000003000000054
:104CA000380000003E0000003E0000003E00000012
:104CB0003E0000006300000063000000630000008D
:104CC0006300000063000000630000006300000058
:104CD000630000003E0000003E0000003E000000B7
:104CE0003E0000006300000063000000630000005D
:104CF0006300000063000000630000006300000028
:104D0000630000003E0000003E0000003E00000086
:104D10003E000000390000001C0000001C000000E4
:104D20003E0000003E000000630000006300000041
:104D300063000000630000006300000063000000E7
:104D400063000000630000003F0000003F0000001F
:104D50001F0000001F00000003000000030000000F
:104D60000300000003000000030000000300000037
:104D700063000000630000003E0000003E000000F1
:104D80001C0000001C0000002D00000000000000BE
:104D90000000000000000000000000000000000013
:104DA0000000000000000000000000000000000003
:104DB0000000000000000000000000007F00000074
:104DC0007F0000007F0000007F0000000000000066
:104DD00000000000000000000000000000000000D3
:104DE00000000000000000000000000000000000C3
:104DF0000000000000000000000000002000000093
:104E000000000000000000000000000000000000A2
:104E10000000000000000000000000000000000092
:104E20000000000000000000000000000000000082
:104E30000000000000000000000000000000000072
:10503000000000000000000000000000000000036D
:105040003000030000000000000000730037300053
:1050500000773000000000000000000000000000A9
:105060000000000000000000000000000000000040
:105070000000000000000000000000000000000030
:105080000000000000000000000000000000000020
:105090000000000000000000000000000000000010
:1050A0000000000000000000000000000000000000
:1050B00000000000000000000000000000000000F0
:1050C000F7003F7777777770000000F7003F703385
:1050D000007F300000000000000000000000000021
:1050E00000000000000000000000000000000000C0
:1050F00000000000000000000000000000000000B0
:10510000000000000000000000000000000000009F
:10511000000000000000000000000000000000008F
:10512000000000000000000000000000000000007F
:10513000000000000000000000000000000000006F
:105140003F707F7777777FF3000000F7003F703F75
:10515000707F000000000000000000000000000060
:10516000000000000000000000000000000000003F
:10517000000000000000000000000000000000002F
:105180000000000000000000000000000000377771
:105190007FFFFFFFFFFF77330000000000000000EB
:1051A00000000000000000000000000000000000FF
:1051B00000000000000000000000000000000000EF
:1051C0000737F73700733700000000F7003F703FE4
:1051D000307F000000000000000000000000000020
:1051E00000000000000000000000000000000000BF
:1051F00000000000000000000000000000000000AF
:105200000000000000000000000000033777FFFFEF
:10521000FFFFFFFFFFFFFFF7777330000000000084
:10522000000000000000000000000000000000007E
:10523000000000000000000000000000000000006E
:10524000003730FF703FF300000000F7033F303FAE
:10525000307F00000000000000000000000000009F
:10526000000000000000000000000000000000003E
:10527000000000000000000000000000000000002E
:10528000000000000000000000003377FFFFFFFF78
:10529000FF7777777FFFFFFFFFFF77330000000086
:1052A00000000000000000000000000000000000FE
:1052B000000000000000000000000000000000F7F7
:1052C000007307F33300FF00000777F77F3F303F9D
:1052D000307F00000000000000000000000000001F
:1052E00000000000000000000000000000000000BE
:1052F00000000000000000000000000000000000AE
:10530000000000000000000000377FFFFFFF7777FC
:105310003333333333337777FFFFFFF77300000006
:10532000000000000000000000000000000000007D
:105330000000000000000000000000000000003F2E
:1053400070F03F303F703F30000373F7337F303FE2
:10535000307F00000000000000000000000000009E
:10536000000000000000000000000000000000003D
:10537000000000000000000000000000000000002D
:10538000000000000000000037FFFFFF77333333D9
:1053900033333333333333333377FFFFFF7300005B
:1053A00000000000000000000000000000000000FD
:1053B00000000000000000000000000000000007E6
:1053C000F77070003F300030000000F7000F303FF2
:1053D000307F00000000000000000000000000001E
:1053E00000000000000000000000000000000000BD
:1053F00000000000000000000000000000000000AD
:105400000000000000000037FFFFF7733333333331
:1054100033333333333333333333377FFFFF730067
:10542000000000000000000000000000000000007C
:10543000000000000000000000000000000000006C
:10544000377033337F7337F3000000F7003F303F8E
:10545000307F00000000000000000000000000009D
:10546000000000000000000000000000000000003C
:10547000000000000000000000000000000000002C
:1054800000000000000037FFFFF7730033333333B1
:1054900033333333333333333333033777FFF773F4
:1054A00000000000000000000000000000000000FC
:1054B00000000000000000000000000000000000EC
:1054C0003F307777FFF77777000000F7003F303FF6
:1054D000307F00000000000000000000000000001D
:1054E00000000000000000000000000000000000BC
:1054F00000000000000000000000000000000000AC
:105500000000000000037FFFF733333333333333BE
:10551000333333333333333333333333337FFFF77F
:10552000300000000000000000000000000000004B
:10553000000000000000000000000000000000006B
:105540007F00000F7FF70000000000F7003F303FB2
:10555000307F00000000000000000000000000009C
:10556000000000000000000000000000000000003B
:10557000000000000000000000000000000000002B
:1055800000000000007FFFF733333333333333330E
:1055900033333333333333333333333333337FFFC3
:1055A000F700000000000000000000000000000004
:1055B00000000000000000000000000000000033B8
:1055C000F700007F3F3F3000000000F737FF003F4B
:1055D000307F00000000000000000000000000001C
:1055E00000000000000000000000000000000000BB
:1055F00000000000000000000000000000000000AB
:105600000000000037FFF773333333333333333362
:105610003333333333333333333333377733337FC6
:10562000FF7000000000000000000000000000000B
:105630000000000000000000000000000000007FEB
:10564000F70003F33F37F000000003FFF7FF003FD0
:10565000307F00000000000000000000000000009B
:10566000000000000000000000000000000000003A
:10567000000000000000000000000000000000002A
:10568000000000037FFF777777777777777333337F
:105690003333333333333333333777777777733782
:1056A00077773000000000000000000000000000DC
:1056B00000000000000000000000000000000003E7
:1056C000F3003F303F30FF300007FF7300F7003F2B
:1056D000307F00000000000000000000000000001B
:1056E00000000000000000000000000000000000BA
:1056F00000000000000000000000000000000000AA
:1057000000000037FFFFFFFFFFFFFFFFFFFF333306
:105710003333333333333333377777777777777779
:105720007777730000000000000000000000000018
:105730000000000000000000000000000000000762
:10574000F303F3003F303FF70007F30007F0003F9B
:10575000307F00000000000000000000000000009A
:105760000000000000000000000000000000000039
:105770000000000000000000000000000000000029
:105780000000037FFFFFFFFFFFFFFFFFFFFF7333FB
:1057900033333333333333377777777777777777B5
:1057A000777FF730000000000000000000000000DC
:1057B00000000000000333000000000000000007AC
:1057C000F37730003F300377300000007F30003F38
:1057D000307F00000000000000000000000000001A
:1057E00000000000000000000000000000000000B9
:1057F00000000000000000000000000000000000A9
:10580000000007FFF7FFFFFFFFFFFFFFFFFF7333FE
:1058100033333333333333777777777777777777F4
:105820007777FF700000000000000000000000001B
:10583000000000007FFFFFF70000000000000007ED
:10584000F30000003F37FFFFFF700007700000000B
:10585000007F33777730000000000037FFFF7300D0
:105860000000000000000000000000000000000038
:105870000000000000000000000000000000000028
:1058800000007FFF737FFFFFFFFFFFFFFFF7333352
:105890003333333333333377777777777777777774
:1058A0007777FFF700000000000000000000000014
:1058B0000000003FFFFFFFFFF700000000000000B6
:1058C0003377773037FFFFFFFFFF703300000000B2
:1058D0000037FFFFFFFFFF777777FFFFFFFFFF70C6
:1058E00000000000000000000000000000000000B8
:1058F00000000000000000000000000000000000A8
:105900000003FFF733333333337FFFF7333333335E
:1059100033333333333337777777733333337777BF
:1059200077777FFF300000000000000000000000DB
:10593000000003FFFFFFFFFFFF70000000000007F3
:10594000FFFFFFFF3FFFFFFFFFFFFFFF70000000B3
:10595000007FFFFFFFFFFFFFFFFFFFFFFFFFFFFFD6
:105960003000000000000000000000000000000007
:105970000000000000000000000000000000000027
:105980000007FF7333333333337FFFF77F77777746
:105990007F733333377777777777333333333777AB
:1059A000777737FF73000000000000000000000060
:1059B00000000FFFFFF77FFFFFFF0000000000FF68
:1059C000FFFFFFFFFFFFFF77FFFFFFFFFF700000FC
:1059D00003FFFFFFFFFFFFFFFFFFFFFFFFFFFFFFD3
:1059E000F3000000000000000000000000000000C4
:1059F00000000000000000000000000000000000A7
:105A0000003FF73333333333337FFFF7FFFFFFFFBD
:105A1000FFF733337FFF777777FF73333333337792
:105A20007777337FF30000000000000000000000E3
:105A300000003FFFF777777FFFFFF30000000FFFC5
:105A4000FFFFFFFFFFFF7777777FFFFFFFFF00007C
:105A50000FFFFF77777FFFFFFFFFFFF777777FFF6E
:105A6000FF30000000000000000000000000000007
:105A70000000000000000000000000000000000026
:105A8000037FF73333333333337FFFF7FFFFFFFFFA
:105A9000FFF73333FFFF77777FFF7333333333778A
:105AA0007777307FF7000000000000000000000062
:105AB0000000FFFF773333777FFFFF0000007FFF99
:105AC000FF7777FFFFF773333777FFFFFFFFF000B4
:105AD0007FFFF7733777777777777777333377FF8A
:105AE000FFF00000000000000000000000000000C7
:105AF00000000000000000000000000000000000A6
:105B000007FF733333333333337FFFF7FFFFFFFF79
:105B1000FFF733337FFF77777FFF733333333337C9
:105B200077773337FF3000000000000000000000EE
:105B30000003FFFF7330003777FFFF700003FFFFA4
:105B400077737777FFF73300033777777FFFF700B7
:105B5000FFFF773303333333333333333000377F4F
:105B6000FFF700000000000000000000000000003F
:105B70000000000000000000000000000000000025
:105B800007FF333333333333337FFFF7FFFFFFFF39
:105B9000FFF333337FF77777FFFF33333333333715
:105BA00077773337FF70000000000000000000002E
:105BB000000FFFF773000003377FFFF00007FFF7C8
:105BC000733033777F7730000033333777FFFF70E0
:105BD000FFFF7300000000000000000000003377AA
:105BE000FFFF0000000000000000000000000000B7
:105BF00000000000000000000000000000000000A5
:105C000007FF333333333333337FFFF7337FFFFF04
:105C1000F333333333377777F73333333333333740
:105C200077773333FFF3000000000000000000002E
:105C3000007FFFF73007F300037FFFF0000FFFF74F
:105C4000330000337773303F30030003377FFFF3B7
:105C5000FFFF730070000000000000000FF000372D
:105C60007FFF300000000000000000000000000086
:105C70000000000000000000000000000000000024
:105C80003FF7333333333333337FFFF73337FFFF9C
:105C9000F733333333777777733333333333333700
:105CA000777733337FF7000000000000000000002A
:105CB00003FFFF77300FFFF00377FFFF000FFFF7C1
:105CC00030070003377300FFFF0000003777FFFF46
